{
  "contractName": "ETHPool",
  "abi": [
    {
      "inputs": [],
      "stateMutability": "nonpayable",
      "type": "constructor"
    },
    {
      "anonymous": false,
      "inputs": [
        {
          "indexed": false,
          "internalType": "address",
          "name": "to",
          "type": "address"
        },
        {
          "indexed": false,
          "internalType": "uint256",
          "name": "amount",
          "type": "uint256"
        }
      ],
      "name": "SendFunds",
      "type": "event"
    },
    {
      "inputs": [],
      "name": "owner",
      "outputs": [
        {
          "internalType": "address",
          "name": "",
          "type": "address"
        }
      ],
      "stateMutability": "view",
      "type": "function"
    },
    {
      "inputs": [
        {
          "internalType": "uint256",
          "name": "userDeposited",
          "type": "uint256"
        }
      ],
      "name": "depositToPool",
      "outputs": [],
      "stateMutability": "payable",
      "type": "function"
    },
    {
      "inputs": [
        {
          "internalType": "uint256",
          "name": "reward",
          "type": "uint256"
        }
      ],
      "name": "depositRewards",
      "outputs": [],
      "stateMutability": "payable",
      "type": "function"
    },
    {
      "inputs": [
        {
          "internalType": "address",
          "name": "userAddress",
          "type": "address"
        }
      ],
      "name": "withdrawFunds",
      "outputs": [],
      "stateMutability": "nonpayable",
      "type": "function"
    }
  ],
  "bytecode": "0x608060405234801561001057600080fd5b50336000806101000a81548173ffffffffffffffffffffffffffffffffffffffff021916908373ffffffffffffffffffffffffffffffffffffffff1602179055506107f6806100606000396000f3fe60806040526004361061003f5760003560e01c806368742da61461004457806368b0e0701461006d5780638bdf67f2146100895780638da5cb5b146100a5575b600080fd5b34801561005057600080fd5b5061006b60048036038101906100669190610517565b6100d0565b005b6100876004803603810190610082919061057a565b610194565b005b6100a3600480360381019061009e919061057a565b61029d565b005b3480156100b157600080fd5b506100ba610426565b6040516100c791906105b6565b60405180910390f35b6000600160008373ffffffffffffffffffffffffffffffffffffffff1673ffffffffffffffffffffffffffffffffffffffff168152602001908152602001600020549050600160008373ffffffffffffffffffffffffffffffffffffffff1673ffffffffffffffffffffffffffffffffffffffff168152602001908152602001600020600090557ff1cd0bd26a42e2622fd70783792900753100768aed8fbaab3f623ee17868985a33826040516101889291906105e0565b60405180910390a15050565b600260405180604001604052803373ffffffffffffffffffffffffffffffffffffffff16815260200183815250908060018154018082558091505060019003906000526020600020906002020160009091909190915060008201518160000160006101000a81548173ffffffffffffffffffffffffffffffffffffffff021916908373ffffffffffffffffffffffffffffffffffffffff16021790555060208201518160010155505080600160003373ffffffffffffffffffffffffffffffffffffffff1673ffffffffffffffffffffffffffffffffffffffff1681526020019081526020016000208190555080600360008282546102939190610638565b9250508190555050565b60008054906101000a900473ffffffffffffffffffffffffffffffffffffffff1673ffffffffffffffffffffffffffffffffffffffff163373ffffffffffffffffffffffffffffffffffffffff16146102f557600080fd5b60005b60028054905081101561040e57600281815481106103195761031861068e565b5b906000526020600020906002020160010154600354600283815481106103425761034161068e565b5b9060005260206000209060020201600101548461035f91906106bd565b6103699190610746565b6103739190610638565b600160006002848154811061038b5761038a61068e565b5b906000526020600020906002020160000160009054906101000a900473ffffffffffffffffffffffffffffffffffffffff1673ffffffffffffffffffffffffffffffffffffffff1673ffffffffffffffffffffffffffffffffffffffff16815260200190815260200160002081905550808061040690610777565b9150506102f8565b5060036000905560026000610423919061044a565b50565b60008054906101000a900473ffffffffffffffffffffffffffffffffffffffff1681565b508054600082556002029060005260206000209081019061046b919061046e565b50565b5b808211156104b057600080820160006101000a81549073ffffffffffffffffffffffffffffffffffffffff021916905560018201600090555060020161046f565b5090565b600080fd5b600073ffffffffffffffffffffffffffffffffffffffff82169050919050565b60006104e4826104b9565b9050919050565b6104f4816104d9565b81146104ff57600080fd5b50565b600081359050610511816104eb565b92915050565b60006020828403121561052d5761052c6104b4565b5b600061053b84828501610502565b91505092915050565b6000819050919050565b61055781610544565b811461056257600080fd5b50565b6000813590506105748161054e565b92915050565b6000602082840312156105905761058f6104b4565b5b600061059e84828501610565565b91505092915050565b6105b0816104d9565b82525050565b60006020820190506105cb60008301846105a7565b92915050565b6105da81610544565b82525050565b60006040820190506105f560008301856105a7565b61060260208301846105d1565b9392505050565b7f4e487b7100000000000000000000000000000000000000000000000000000000600052601160045260246000fd5b600061064382610544565b915061064e83610544565b9250827fffffffffffffffffffffffffffffffffffffffffffffffffffffffffffffffff0382111561068357610682610609565b5b828201905092915050565b7f4e487b7100000000000000000000000000000000000000000000000000000000600052603260045260246000fd5b60006106c882610544565b91506106d383610544565b9250817fffffffffffffffffffffffffffffffffffffffffffffffffffffffffffffffff048311821515161561070c5761070b610609565b5b828202905092915050565b7f4e487b7100000000000000000000000000000000000000000000000000000000600052601260045260246000fd5b600061075182610544565b915061075c83610544565b92508261076c5761076b610717565b5b828204905092915050565b600061078282610544565b91507fffffffffffffffffffffffffffffffffffffffffffffffffffffffffffffffff8214156107b5576107b4610609565b5b60018201905091905056fea2646970667358221220885a298f7bf45ce6408410181ff85d1a15443173bbf20b51fcf70918318448e564736f6c634300080b0033",
  "immutableReferences": {},
  "source": "// SPDX-License-Identifier: MIT\n\npragma solidity >=0.6.0;\n\ncontract ETHPool{\n\n    address public owner;\n    mapping (address => uint256) percentage;\n    Person[] participants;\n    uint256 pool;\n    event SendFunds(address to,uint256 amount);\n\n    constructor(){\n        owner = msg.sender;\n    }\n\n    struct Person{\n        address receiver;\n        uint256 deposit;\n    }\n\n    function depositToPool(uint256 userDeposited) payable public{\n        participants.push(Person(msg.sender, userDeposited));\n        percentage[msg.sender] = userDeposited;\n        pool += userDeposited;\n    }\n\n    function depositRewards(uint256 reward) payable public{\n        require(msg.sender==owner);\n        for(uint256 i=0;i<participants.length;i++){\n            percentage[participants[i].receiver] = ((reward*participants[i].deposit)/pool)+participants[i].deposit;\n        }\n        delete pool;\n        delete participants;\n    }\n\n    function withdrawFunds(address userAddress) public {\n        uint256 funds = percentage[userAddress];\n        delete percentage[userAddress];\n        emit SendFunds(msg.sender, funds);\n    }\n}",
  "sourcePath": "C:\\Users\\fede\\Documents\\Mis repos\\challenge\\contracts\\ETHpool.sol",
  "compiler": {
    "name": "solc",
    "version": "0.8.11+commit.d7f03943.Emscripten.clang"
  },
  "schemaVersion": "3.4.5",
  "updatedAt": "2022-03-02T15:29:54.160Z",
  "devdoc": {
    "kind": "dev",
    "methods": {},
    "version": 1
  },
  "userdoc": {
    "kind": "user",
    "methods": {},
    "version": 1
  }
}