{
  "contractName": "ETHPool",
  "abi": [
    {
      "inputs": [
        {
          "internalType": "address",
          "name": "userReceiver",
          "type": "address"
        },
        {
          "internalType": "uint256",
          "name": "userDeposited",
          "type": "uint256"
        }
      ],
      "name": "depositToPool",
      "outputs": [],
      "stateMutability": "nonpayable",
      "type": "function"
    },
    {
      "inputs": [
        {
          "internalType": "uint256",
          "name": "reward",
          "type": "uint256"
        }
      ],
      "name": "depositRewards",
      "outputs": [],
      "stateMutability": "nonpayable",
      "type": "function"
    },
    {
      "inputs": [
        {
          "internalType": "address",
          "name": "userAddress",
          "type": "address"
        }
      ],
      "name": "withdrawFunds",
      "outputs": [
        {
          "internalType": "uint256",
          "name": "withdrawn",
          "type": "uint256"
        }
      ],
      "stateMutability": "nonpayable",
      "type": "function"
    }
  ],
  "bytecode": "0x608060405234801561001057600080fd5b5061072a806100206000396000f3fe608060405234801561001057600080fd5b50600436106100415760003560e01c80632f6d58dc1461004657806368742da6146100625780638bdf67f214610092575b600080fd5b610060600480360381019061005b9190610479565b6100ae565b005b61007c600480360381019061007791906104b9565b6101b7565b60405161008991906104f5565b60405180910390f35b6100ac60048036038101906100a79190610510565b610246565b005b600260405180604001604052808473ffffffffffffffffffffffffffffffffffffffff16815260200183815250908060018154018082558091505060019003906000526020600020906002020160009091909190915060008201518160000160006101000a81548173ffffffffffffffffffffffffffffffffffffffff021916908373ffffffffffffffffffffffffffffffffffffffff160217905550602082015181600101555050806000808473ffffffffffffffffffffffffffffffffffffffff1673ffffffffffffffffffffffffffffffffffffffff1681526020019081526020016000208190555080600160008282546101ac919061056c565b925050819055505050565b6000806000808473ffffffffffffffffffffffffffffffffffffffff1673ffffffffffffffffffffffffffffffffffffffff1681526020019081526020016000205490506000808473ffffffffffffffffffffffffffffffffffffffff1673ffffffffffffffffffffffffffffffffffffffff1681526020019081526020016000206000905580915050919050565b60005b60028054905081101561035e576002818154811061026a576102696105c2565b5b90600052602060002090600202016001015460015460028381548110610293576102926105c2565b5b906000526020600020906002020160010154846102b091906105f1565b6102ba919061067a565b6102c4919061056c565b600080600284815481106102db576102da6105c2565b5b906000526020600020906002020160000160009054906101000a900473ffffffffffffffffffffffffffffffffffffffff1673ffffffffffffffffffffffffffffffffffffffff1673ffffffffffffffffffffffffffffffffffffffff168152602001908152602001600020819055508080610356906106ab565b915050610249565b50600160009055600260006103739190610376565b50565b5080546000825560020290600052602060002090810190610397919061039a565b50565b5b808211156103dc57600080820160006101000a81549073ffffffffffffffffffffffffffffffffffffffff021916905560018201600090555060020161039b565b5090565b600080fd5b600073ffffffffffffffffffffffffffffffffffffffff82169050919050565b6000610410826103e5565b9050919050565b61042081610405565b811461042b57600080fd5b50565b60008135905061043d81610417565b92915050565b6000819050919050565b61045681610443565b811461046157600080fd5b50565b6000813590506104738161044d565b92915050565b600080604083850312156104905761048f6103e0565b5b600061049e8582860161042e565b92505060206104af85828601610464565b9150509250929050565b6000602082840312156104cf576104ce6103e0565b5b60006104dd8482850161042e565b91505092915050565b6104ef81610443565b82525050565b600060208201905061050a60008301846104e6565b92915050565b600060208284031215610526576105256103e0565b5b600061053484828501610464565b91505092915050565b7f4e487b7100000000000000000000000000000000000000000000000000000000600052601160045260246000fd5b600061057782610443565b915061058283610443565b9250827fffffffffffffffffffffffffffffffffffffffffffffffffffffffffffffffff038211156105b7576105b661053d565b5b828201905092915050565b7f4e487b7100000000000000000000000000000000000000000000000000000000600052603260045260246000fd5b60006105fc82610443565b915061060783610443565b9250817fffffffffffffffffffffffffffffffffffffffffffffffffffffffffffffffff04831182151516156106405761063f61053d565b5b828202905092915050565b7f4e487b7100000000000000000000000000000000000000000000000000000000600052601260045260246000fd5b600061068582610443565b915061069083610443565b9250826106a05761069f61064b565b5b828204905092915050565b60006106b682610443565b91507fffffffffffffffffffffffffffffffffffffffffffffffffffffffffffffffff8214156106e9576106e861053d565b5b60018201905091905056fea2646970667358221220d022da234a5377e9619e947d525c45eed01f8170aa8f382090da3e41438e376564736f6c634300080b0033",
  "immutableReferences": {},
  "source": "// SPDX-License-Identifier: MIT\n\npragma solidity >=0.6.0;\n\ncontract ETHPool{\n\n    //mapping (address => uint256) deposit;\n    //uint256 rewardCount;\n\n    mapping (address => uint256) percentage;\n    uint256 pool;\n\n    struct Person{\n        address receiver;\n        uint256 deposit;\n        //uint256 percentage;\n    }\n\n   /* struct Percentage{\n        address person;\n        uint256 percentage;\n    }*/\n\n    /*struct RewardType{\n        uint256 rewardNumber;\n        Person[] participantsRecord;\n    }\n\n    //RewardType[] rewardhistory;*/\n    Person[] participants;\n\n    function depositToPool(address userReceiver, uint256 userDeposited) public{\n        //deposit[userReceiver] = userDeposited;\n        participants.push(Person(userReceiver, userDeposited/*,0*/));\n        percentage[userReceiver] = userDeposited;\n        pool += userDeposited;\n    }\n\n    function depositRewards(uint256 reward) public{\n        //rewardCount += 1;\n        //rewardhistory.push(RewardType(rewardCount, participants));\n        \n        for(uint256 i=0;i<participants.length;i++){\n            percentage[participants[i].receiver] = ((reward*participants[i].deposit)/pool)+participants[i].deposit;\n        }\n        delete pool;\n        delete participants;\n    }\n\n    function withdrawFunds(address userAddress) public returns(uint256 withdrawn){\n        uint256 funds = percentage[userAddress];\n        delete percentage[userAddress];\n        return funds;\n    }\n}",
  "sourcePath": "C:\\Users\\fede\\Documents\\Mis repos\\challenge\\contracts\\ETHpool.sol",
  "compiler": {
    "name": "solc",
    "version": "0.8.11+commit.d7f03943.Emscripten.clang"
  },
  "schemaVersion": "3.4.5",
  "updatedAt": "2022-03-02T14:24:11.566Z",
  "devdoc": {
    "kind": "dev",
    "methods": {},
    "version": 1
  },
  "userdoc": {
    "kind": "user",
    "methods": {},
    "version": 1
  }
}