{
  "contractName": "ETHPool",
  "abi": [
    {
      "inputs": [],
      "name": "owner",
      "outputs": [
        {
          "internalType": "address",
          "name": "",
          "type": "address"
        }
      ],
      "stateMutability": "view",
      "type": "function"
    },
    {
      "inputs": [
        {
          "internalType": "address",
          "name": "userReceiver",
          "type": "address"
        },
        {
          "internalType": "uint256",
          "name": "userDeposited",
          "type": "uint256"
        }
      ],
      "name": "depositToPool",
      "outputs": [],
      "stateMutability": "nonpayable",
      "type": "function"
    },
    {
      "inputs": [
        {
          "internalType": "uint256",
          "name": "reward",
          "type": "uint256"
        }
      ],
      "name": "depositRewards",
      "outputs": [],
      "stateMutability": "nonpayable",
      "type": "function"
    },
    {
      "inputs": [
        {
          "internalType": "address",
          "name": "userAddress",
          "type": "address"
        }
      ],
      "name": "withdrawFunds",
      "outputs": [
        {
          "internalType": "uint256",
          "name": "withdrawn",
          "type": "uint256"
        }
      ],
      "stateMutability": "nonpayable",
      "type": "function"
    }
  ],
  "bytecode": "0x608060405234801561001057600080fd5b506107fd806100206000396000f3fe608060405234801561001057600080fd5b506004361061004c5760003560e01c80632f6d58dc1461005157806368742da61461006d5780638bdf67f21461009d5780638da5cb5b146100b9575b600080fd5b61006b60048036038101906100669190610522565b6100d7565b005b61008760048036038101906100829190610562565b6101e1565b604051610094919061059e565b60405180910390f35b6100b760048036038101906100b291906105b9565b610272565b005b6100c16103fb565b6040516100ce91906105f5565b60405180910390f35b600260405180604001604052808473ffffffffffffffffffffffffffffffffffffffff16815260200183815250908060018154018082558091505060019003906000526020600020906002020160009091909190915060008201518160000160006101000a81548173ffffffffffffffffffffffffffffffffffffffff021916908373ffffffffffffffffffffffffffffffffffffffff16021790555060208201518160010155505080600160008473ffffffffffffffffffffffffffffffffffffffff1673ffffffffffffffffffffffffffffffffffffffff1681526020019081526020016000208190555080600360008282546101d6919061063f565b925050819055505050565b600080600160008473ffffffffffffffffffffffffffffffffffffffff1673ffffffffffffffffffffffffffffffffffffffff168152602001908152602001600020549050600160008473ffffffffffffffffffffffffffffffffffffffff1673ffffffffffffffffffffffffffffffffffffffff1681526020019081526020016000206000905580915050919050565b60008054906101000a900473ffffffffffffffffffffffffffffffffffffffff1673ffffffffffffffffffffffffffffffffffffffff163373ffffffffffffffffffffffffffffffffffffffff16146102ca57600080fd5b60005b6002805490508110156103e357600281815481106102ee576102ed610695565b5b9060005260206000209060020201600101546003546002838154811061031757610316610695565b5b9060005260206000209060020201600101548461033491906106c4565b61033e919061074d565b610348919061063f565b60016000600284815481106103605761035f610695565b5b906000526020600020906002020160000160009054906101000a900473ffffffffffffffffffffffffffffffffffffffff1673ffffffffffffffffffffffffffffffffffffffff1673ffffffffffffffffffffffffffffffffffffffff1681526020019081526020016000208190555080806103db9061077e565b9150506102cd565b50600360009055600260006103f8919061041f565b50565b60008054906101000a900473ffffffffffffffffffffffffffffffffffffffff1681565b50805460008255600202906000526020600020908101906104409190610443565b50565b5b8082111561048557600080820160006101000a81549073ffffffffffffffffffffffffffffffffffffffff0219169055600182016000905550600201610444565b5090565b600080fd5b600073ffffffffffffffffffffffffffffffffffffffff82169050919050565b60006104b98261048e565b9050919050565b6104c9816104ae565b81146104d457600080fd5b50565b6000813590506104e6816104c0565b92915050565b6000819050919050565b6104ff816104ec565b811461050a57600080fd5b50565b60008135905061051c816104f6565b92915050565b6000806040838503121561053957610538610489565b5b6000610547858286016104d7565b92505060206105588582860161050d565b9150509250929050565b60006020828403121561057857610577610489565b5b6000610586848285016104d7565b91505092915050565b610598816104ec565b82525050565b60006020820190506105b3600083018461058f565b92915050565b6000602082840312156105cf576105ce610489565b5b60006105dd8482850161050d565b91505092915050565b6105ef816104ae565b82525050565b600060208201905061060a60008301846105e6565b92915050565b7f4e487b7100000000000000000000000000000000000000000000000000000000600052601160045260246000fd5b600061064a826104ec565b9150610655836104ec565b9250827fffffffffffffffffffffffffffffffffffffffffffffffffffffffffffffffff0382111561068a57610689610610565b5b828201905092915050565b7f4e487b7100000000000000000000000000000000000000000000000000000000600052603260045260246000fd5b60006106cf826104ec565b91506106da836104ec565b9250817fffffffffffffffffffffffffffffffffffffffffffffffffffffffffffffffff048311821515161561071357610712610610565b5b828202905092915050565b7f4e487b7100000000000000000000000000000000000000000000000000000000600052601260045260246000fd5b6000610758826104ec565b9150610763836104ec565b9250826107735761077261071e565b5b828204905092915050565b6000610789826104ec565b91507fffffffffffffffffffffffffffffffffffffffffffffffffffffffffffffffff8214156107bc576107bb610610565b5b60018201905091905056fea264697066735822122095b9631100e0ac98cddc60dc3e12fd7145a94f46ddfd4e4b38b641b0fbb423fc64736f6c634300080b0033",
  "immutableReferences": {},
  "source": "// SPDX-License-Identifier: MIT\n\npragma solidity >=0.6.0;\n\ncontract ETHPool{\n\n    address public owner;\n    mapping (address => uint256) percentage;\n    Person[] participants;\n    uint256 pool;\n\n    struct Person{\n        address receiver;\n        uint256 deposit;\n    }\n\n    function depositToPool(address userReceiver, uint256 userDeposited) public{\n        participants.push(Person(userReceiver, userDeposited));\n        percentage[userReceiver] = userDeposited;\n        pool += userDeposited;\n    }\n\n    function depositRewards(uint256 reward) public{\n        require(msg.sender==owner);\n        for(uint256 i=0;i<participants.length;i++){\n            percentage[participants[i].receiver] = ((reward*participants[i].deposit)/pool)+participants[i].deposit;\n        }\n        delete pool;\n        delete participants;\n    }\n\n    function withdrawFunds(address userAddress) public returns(uint256 withdrawn){\n        uint256 funds = percentage[userAddress];\n        delete percentage[userAddress];\n        return funds;\n    }\n}",
  "sourcePath": "C:\\Users\\fede\\Documents\\Mis repos\\challenge\\contracts\\ETHpool.sol",
  "compiler": {
    "name": "solc",
    "version": "0.8.11+commit.d7f03943.Emscripten.clang"
  },
  "schemaVersion": "3.4.5",
  "updatedAt": "2022-03-02T14:57:12.600Z",
  "devdoc": {
    "kind": "dev",
    "methods": {},
    "version": 1
  },
  "userdoc": {
    "kind": "user",
    "methods": {},
    "version": 1
  }
}