{
  "contractName": "ETHPool",
  "abi": [
    {
      "inputs": [],
      "stateMutability": "nonpayable",
      "type": "constructor"
    },
    {
      "anonymous": false,
      "inputs": [
        {
          "indexed": false,
          "internalType": "address",
          "name": "from",
          "type": "address"
        },
        {
          "indexed": false,
          "internalType": "address",
          "name": "to",
          "type": "address"
        },
        {
          "indexed": false,
          "internalType": "uint256",
          "name": "amount",
          "type": "uint256"
        }
      ],
      "name": "SendFunds",
      "type": "event"
    },
    {
      "inputs": [],
      "name": "owner",
      "outputs": [
        {
          "internalType": "address",
          "name": "",
          "type": "address"
        }
      ],
      "stateMutability": "view",
      "type": "function"
    },
    {
      "inputs": [
        {
          "internalType": "uint256",
          "name": "userDeposited",
          "type": "uint256"
        }
      ],
      "name": "depositToPool",
      "outputs": [],
      "stateMutability": "payable",
      "type": "function"
    },
    {
      "inputs": [
        {
          "internalType": "uint256",
          "name": "reward",
          "type": "uint256"
        }
      ],
      "name": "depositRewards",
      "outputs": [],
      "stateMutability": "payable",
      "type": "function"
    },
    {
      "inputs": [],
      "name": "withdrawFunds",
      "outputs": [],
      "stateMutability": "nonpayable",
      "type": "function"
    }
  ],
  "bytecode": "0x608060405234801561001057600080fd5b50336000806101000a81548173ffffffffffffffffffffffffffffffffffffffff021916908373ffffffffffffffffffffffffffffffffffffffff160217905550610916806100606000396000f3fe60806040526004361061003f5760003560e01c806324600fc31461004457806368b0e0701461005b5780638bdf67f2146100775780638da5cb5b14610093575b600080fd5b34801561005057600080fd5b506100596100be565b005b6100756004803603810190610070919061065a565b6101a3565b005b610091600480360381019061008c919061065a565b6102be565b005b34801561009f57600080fd5b506100a8610591565b6040516100b591906106c8565b60405180910390f35b6000600160003373ffffffffffffffffffffffffffffffffffffffff1673ffffffffffffffffffffffffffffffffffffffff168152602001908152602001600020549050600160003373ffffffffffffffffffffffffffffffffffffffff1673ffffffffffffffffffffffffffffffffffffffff168152602001908152602001600020600090557f4bc2558d529c6e3abf5ea1b6c22349745696b9f2698448434579bcfcf4ad83c360008054906101000a900473ffffffffffffffffffffffffffffffffffffffff163383604051610198939291906106f2565b60405180910390a150565b600260405180604001604052803373ffffffffffffffffffffffffffffffffffffffff16815260200183815250908060018154018082558091505060019003906000526020600020906002020160009091909190915060008201518160000160006101000a81548173ffffffffffffffffffffffffffffffffffffffff021916908373ffffffffffffffffffffffffffffffffffffffff16021790555060208201518160010155505080600160003373ffffffffffffffffffffffffffffffffffffffff1673ffffffffffffffffffffffffffffffffffffffff168152602001908152602001600020600082825461029b9190610758565b9250508190555080600360008282546102b49190610758565b9250508190555050565b60008054906101000a900473ffffffffffffffffffffffffffffffffffffffff1673ffffffffffffffffffffffffffffffffffffffff163373ffffffffffffffffffffffffffffffffffffffff161461031657600080fd5b60005b6002805490508110156104595760006002828154811061033c5761033b6107ae565b5b906000526020600020906002020160000160009054906101000a900473ffffffffffffffffffffffffffffffffffffffff16905060028281548110610384576103836107ae565b5b906000526020600020906002020160010154600160008373ffffffffffffffffffffffffffffffffffffffff1673ffffffffffffffffffffffffffffffffffffffff168152602001908152602001600020541461044557600160008273ffffffffffffffffffffffffffffffffffffffff1673ffffffffffffffffffffffffffffffffffffffff168152602001908152602001600020546002838154811061042f5761042e6107ae565b5b9060005260206000209060020201600101819055505b508080610451906107dd565b915050610319565b5060005b600280549050811015610579576000600282815481106104805761047f6107ae565b5b906000526020600020906002020160000160009054906101000a900473ffffffffffffffffffffffffffffffffffffffff169050600282815481106104c8576104c76107ae565b5b906000526020600020906002020160010154600354600284815481106104f1576104f06107ae565b5b9060005260206000209060020201600101548561050e9190610826565b61051891906108af565b6105229190610758565b600160008373ffffffffffffffffffffffffffffffffffffffff1673ffffffffffffffffffffffffffffffffffffffff16815260200190815260200160002081905550508080610571906107dd565b91505061045d565b506003600090556002600061058e91906105b5565b50565b60008054906101000a900473ffffffffffffffffffffffffffffffffffffffff1681565b50805460008255600202906000526020600020908101906105d691906105d9565b50565b5b8082111561061b57600080820160006101000a81549073ffffffffffffffffffffffffffffffffffffffff02191690556001820160009055506002016105da565b5090565b600080fd5b6000819050919050565b61063781610624565b811461064257600080fd5b50565b6000813590506106548161062e565b92915050565b6000602082840312156106705761066f61061f565b5b600061067e84828501610645565b91505092915050565b600073ffffffffffffffffffffffffffffffffffffffff82169050919050565b60006106b282610687565b9050919050565b6106c2816106a7565b82525050565b60006020820190506106dd60008301846106b9565b92915050565b6106ec81610624565b82525050565b600060608201905061070760008301866106b9565b61071460208301856106b9565b61072160408301846106e3565b949350505050565b7f4e487b7100000000000000000000000000000000000000000000000000000000600052601160045260246000fd5b600061076382610624565b915061076e83610624565b9250827fffffffffffffffffffffffffffffffffffffffffffffffffffffffffffffffff038211156107a3576107a2610729565b5b828201905092915050565b7f4e487b7100000000000000000000000000000000000000000000000000000000600052603260045260246000fd5b60006107e882610624565b91507fffffffffffffffffffffffffffffffffffffffffffffffffffffffffffffffff82141561081b5761081a610729565b5b600182019050919050565b600061083182610624565b915061083c83610624565b9250817fffffffffffffffffffffffffffffffffffffffffffffffffffffffffffffffff048311821515161561087557610874610729565b5b828202905092915050565b7f4e487b7100000000000000000000000000000000000000000000000000000000600052601260045260246000fd5b60006108ba82610624565b91506108c583610624565b9250826108d5576108d4610880565b5b82820490509291505056fea26469706673582212207dbf7d64d69450c64c148f4861956d8fba35d7b308ceb63e9789c99a1860ecf864736f6c634300080b0033",
  "immutableReferences": {},
  "source": "// SPDX-License-Identifier: MIT\n\npragma solidity >=0.6.0;\n\ncontract ETHPool{\n\n    address public owner;\n    mapping (address => uint256) percentage;\n    Person[] participants;\n    uint256 pool;\n    event SendFunds(address from,address to,uint256 amount);\n\n    constructor(){\n        owner = msg.sender;\n    }\n\n    struct Person{\n        address receiver;\n        uint256 deposit;\n    }\n\n    function depositToPool(uint256 userDeposited) payable public{\n        participants.push(Person(msg.sender, userDeposited));\n        percentage[msg.sender] += userDeposited;\n        pool += userDeposited;\n    }\n\n    function depositRewards(uint256 reward) payable public{\n        require(msg.sender==owner);\n        for(uint256 a=0;a<participants.length;a++){\n            address part_addr = participants[a].receiver;\n            if(percentage[part_addr] != participants[a].deposit){\n                participants[a].deposit = percentage[part_addr];\n            }\n        }\n\n        for(uint256 i=0;i<participants.length;i++){\n            address part_addr = participants[i].receiver;\n            percentage[part_addr] = ((reward*participants[i].deposit)/pool)+participants[i].deposit;\n        }\n        delete pool;\n        delete participants;\n    }\n\n    function withdrawFunds() public {\n        uint256 funds = percentage[msg.sender];\n        delete percentage[msg.sender];\n        emit SendFunds(owner, msg.sender, funds);\n    }\n}",
  "sourcePath": "C:\\Users\\fede\\Documents\\Mis repos\\challenge\\contracts\\ETHpool.sol",
  "compiler": {
    "name": "solc",
    "version": "0.8.11+commit.d7f03943.Emscripten.clang"
  },
  "schemaVersion": "3.4.5",
  "updatedAt": "2022-03-03T01:22:25.757Z",
  "devdoc": {
    "kind": "dev",
    "methods": {},
    "version": 1
  },
  "userdoc": {
    "kind": "user",
    "methods": {},
    "version": 1
  }
}