{
  "contractName": "ETHPool",
  "abi": [
    {
      "inputs": [],
      "stateMutability": "nonpayable",
      "type": "constructor"
    },
    {
      "anonymous": false,
      "inputs": [
        {
          "indexed": false,
          "internalType": "uint256",
          "name": "amount",
          "type": "uint256"
        }
      ],
      "name": "Log",
      "type": "event"
    },
    {
      "anonymous": false,
      "inputs": [
        {
          "indexed": false,
          "internalType": "address",
          "name": "from",
          "type": "address"
        },
        {
          "indexed": false,
          "internalType": "address",
          "name": "to",
          "type": "address"
        },
        {
          "indexed": false,
          "internalType": "uint256",
          "name": "amount",
          "type": "uint256"
        }
      ],
      "name": "SendFunds",
      "type": "event"
    },
    {
      "inputs": [
        {
          "internalType": "uint256",
          "name": "userDeposited",
          "type": "uint256"
        }
      ],
      "name": "depositToPool",
      "outputs": [],
      "stateMutability": "payable",
      "type": "function"
    },
    {
      "inputs": [
        {
          "internalType": "uint256",
          "name": "reward",
          "type": "uint256"
        }
      ],
      "name": "depositRewards",
      "outputs": [],
      "stateMutability": "payable",
      "type": "function"
    },
    {
      "inputs": [],
      "name": "withdrawFunds",
      "outputs": [],
      "stateMutability": "nonpayable",
      "type": "function"
    }
  ],
  "bytecode": "0x608060405234801561001057600080fd5b50336000806101000a81548173ffffffffffffffffffffffffffffffffffffffff021916908373ffffffffffffffffffffffffffffffffffffffff1602179055506108f5806100606000396000f3fe6080604052600436106100345760003560e01c806324600fc31461003957806368b0e070146100505780638bdf67f21461006c575b600080fd5b34801561004557600080fd5b5061004e610088565b005b61006a60048036038101906100659190610639565b61016d565b005b61008660048036038101906100819190610639565b6102c1565b005b6000600160003373ffffffffffffffffffffffffffffffffffffffff1673ffffffffffffffffffffffffffffffffffffffff168152602001908152602001600020549050600160003373ffffffffffffffffffffffffffffffffffffffff1673ffffffffffffffffffffffffffffffffffffffff168152602001908152602001600020600090557f4bc2558d529c6e3abf5ea1b6c22349745696b9f2698448434579bcfcf4ad83c360008054906101000a900473ffffffffffffffffffffffffffffffffffffffff163383604051610162939291906106b6565b60405180910390a150565b600260405180604001604052803373ffffffffffffffffffffffffffffffffffffffff16815260200183815250908060018154018082558091505060019003906000526020600020906002020160009091909190915060008201518160000160006101000a81548173ffffffffffffffffffffffffffffffffffffffff021916908373ffffffffffffffffffffffffffffffffffffffff16021790555060208201518160010155505080600160003373ffffffffffffffffffffffffffffffffffffffff1673ffffffffffffffffffffffffffffffffffffffff1681526020019081526020016000206000828254610265919061071c565b92505081905550806003600082825461027e919061071c565b925050819055507f909c57d5c6ac08245cf2a6de3900e2b868513fa59099b92b27d8db823d92df9c6003546040516102b69190610772565b60405180910390a150565b60008054906101000a900473ffffffffffffffffffffffffffffffffffffffff1673ffffffffffffffffffffffffffffffffffffffff163373ffffffffffffffffffffffffffffffffffffffff161461031957600080fd5b60005b60028054905081101561045c5760006002828154811061033f5761033e61078d565b5b906000526020600020906002020160000160009054906101000a900473ffffffffffffffffffffffffffffffffffffffff169050600282815481106103875761038661078d565b5b906000526020600020906002020160010154600160008373ffffffffffffffffffffffffffffffffffffffff1673ffffffffffffffffffffffffffffffffffffffff168152602001908152602001600020541461044857600160008273ffffffffffffffffffffffffffffffffffffffff1673ffffffffffffffffffffffffffffffffffffffff16815260200190815260200160002054600283815481106104325761043161078d565b5b9060005260206000209060020201600101819055505b508080610454906107bc565b91505061031c565b5060005b60028054905081101561057c576000600282815481106104835761048261078d565b5b906000526020600020906002020160000160009054906101000a900473ffffffffffffffffffffffffffffffffffffffff169050600282815481106104cb576104ca61078d565b5b906000526020600020906002020160010154600354600284815481106104f4576104f361078d565b5b906000526020600020906002020160010154856105119190610805565b61051b919061088e565b610525919061071c565b600160008373ffffffffffffffffffffffffffffffffffffffff1673ffffffffffffffffffffffffffffffffffffffff16815260200190815260200160002081905550508080610574906107bc565b915050610460565b50600360009055600260006105919190610594565b50565b50805460008255600202906000526020600020908101906105b591906105b8565b50565b5b808211156105fa57600080820160006101000a81549073ffffffffffffffffffffffffffffffffffffffff02191690556001820160009055506002016105b9565b5090565b600080fd5b6000819050919050565b61061681610603565b811461062157600080fd5b50565b6000813590506106338161060d565b92915050565b60006020828403121561064f5761064e6105fe565b5b600061065d84828501610624565b91505092915050565b600073ffffffffffffffffffffffffffffffffffffffff82169050919050565b600061069182610666565b9050919050565b6106a181610686565b82525050565b6106b081610603565b82525050565b60006060820190506106cb6000830186610698565b6106d86020830185610698565b6106e560408301846106a7565b949350505050565b7f4e487b7100000000000000000000000000000000000000000000000000000000600052601160045260246000fd5b600061072782610603565b915061073283610603565b9250827fffffffffffffffffffffffffffffffffffffffffffffffffffffffffffffffff03821115610767576107666106ed565b5b828201905092915050565b600060208201905061078760008301846106a7565b92915050565b7f4e487b7100000000000000000000000000000000000000000000000000000000600052603260045260246000fd5b60006107c782610603565b91507fffffffffffffffffffffffffffffffffffffffffffffffffffffffffffffffff8214156107fa576107f96106ed565b5b600182019050919050565b600061081082610603565b915061081b83610603565b9250817fffffffffffffffffffffffffffffffffffffffffffffffffffffffffffffffff0483118215151615610854576108536106ed565b5b828202905092915050565b7f4e487b7100000000000000000000000000000000000000000000000000000000600052601260045260246000fd5b600061089982610603565b91506108a483610603565b9250826108b4576108b361085f565b5b82820490509291505056fea264697066735822122026bdf576721af10d1e3f42b70ab66f22b0df884802b28b59112b21448d7a96ed64736f6c634300080b0033",
  "immutableReferences": {},
  "source": "// SPDX-License-Identifier: MIT\n\npragma solidity >=0.6.0;\n\ncontract ETHPool{\n\n    event Log(uint256 amount);\n    address private owner;\n    mapping (address => uint256) percentage;\n    Person[] participants;\n    uint256 pool;\n    event SendFunds(address from,address to,uint256 amount);\n\n    constructor(){\n        owner = msg.sender;\n    }\n\n    struct Person{\n        address receiver;\n        uint256 deposit;\n    }\n\n    function depositToPool(uint256 userDeposited) payable public{\n        participants.push(Person(msg.sender, userDeposited));\n        percentage[msg.sender] += userDeposited;\n        pool += userDeposited;\n        emit Log(pool);\n    }\n\n    function depositRewards(uint256 reward) payable public{\n        require(msg.sender==owner);\n        for(uint256 a=0;a<participants.length;a++){\n            address part_addr = participants[a].receiver;\n            if(percentage[part_addr] != participants[a].deposit){\n                participants[a].deposit = percentage[part_addr];\n            }\n        }\n\n        for(uint256 i=0;i<participants.length;i++){\n            address part_addr = participants[i].receiver;\n            percentage[part_addr] = ((reward*participants[i].deposit)/pool)+participants[i].deposit;\n        }\n        delete pool;\n        delete participants;\n    }\n\n    function withdrawFunds() public {\n        uint256 funds = percentage[msg.sender];\n        delete percentage[msg.sender];\n        emit SendFunds(owner, msg.sender, funds);\n    }\n}",
  "sourcePath": "C:\\Users\\fede\\Documents\\Mis repos\\challenge\\contracts\\ETHpool.sol",
  "compiler": {
    "name": "solc",
    "version": "0.8.11+commit.d7f03943.Emscripten.clang"
  },
  "schemaVersion": "3.4.5",
  "updatedAt": "2022-03-04T02:33:10.703Z",
  "devdoc": {
    "kind": "dev",
    "methods": {},
    "version": 1
  },
  "userdoc": {
    "kind": "user",
    "methods": {},
    "version": 1
  }
}