{
  "contractName": "ETHPool",
  "abi": [
    {
      "inputs": [],
      "stateMutability": "nonpayable",
      "type": "constructor"
    },
    {
      "anonymous": false,
      "inputs": [
        {
          "indexed": false,
          "internalType": "address",
          "name": "from",
          "type": "address"
        },
        {
          "indexed": false,
          "internalType": "address",
          "name": "to",
          "type": "address"
        },
        {
          "indexed": false,
          "internalType": "uint256",
          "name": "amount",
          "type": "uint256"
        }
      ],
      "name": "SendFunds",
      "type": "event"
    },
    {
      "inputs": [],
      "name": "owner",
      "outputs": [
        {
          "internalType": "address",
          "name": "",
          "type": "address"
        }
      ],
      "stateMutability": "view",
      "type": "function"
    },
    {
      "inputs": [
        {
          "internalType": "uint256",
          "name": "userDeposited",
          "type": "uint256"
        }
      ],
      "name": "depositToPool",
      "outputs": [],
      "stateMutability": "payable",
      "type": "function"
    },
    {
      "inputs": [
        {
          "internalType": "uint256",
          "name": "reward",
          "type": "uint256"
        }
      ],
      "name": "depositRewards",
      "outputs": [],
      "stateMutability": "payable",
      "type": "function"
    },
    {
      "inputs": [],
      "name": "withdrawFunds",
      "outputs": [],
      "stateMutability": "nonpayable",
      "type": "function"
    }
  ],
  "bytecode": "0x608060405234801561001057600080fd5b50336000806101000a81548173ffffffffffffffffffffffffffffffffffffffff021916908373ffffffffffffffffffffffffffffffffffffffff1602179055506107ba806100606000396000f3fe60806040526004361061003f5760003560e01c806324600fc31461004457806368b0e0701461005b5780638bdf67f2146100775780638da5cb5b14610093575b600080fd5b34801561005057600080fd5b506100596100be565b005b610075600480360381019061007091906104fe565b6101a3565b005b610091600480360381019061008c91906104fe565b6102ac565b005b34801561009f57600080fd5b506100a8610435565b6040516100b5919061056c565b60405180910390f35b6000600160003373ffffffffffffffffffffffffffffffffffffffff1673ffffffffffffffffffffffffffffffffffffffff168152602001908152602001600020549050600160003373ffffffffffffffffffffffffffffffffffffffff1673ffffffffffffffffffffffffffffffffffffffff168152602001908152602001600020600090557f4bc2558d529c6e3abf5ea1b6c22349745696b9f2698448434579bcfcf4ad83c360008054906101000a900473ffffffffffffffffffffffffffffffffffffffff16338360405161019893929190610596565b60405180910390a150565b600260405180604001604052803373ffffffffffffffffffffffffffffffffffffffff16815260200183815250908060018154018082558091505060019003906000526020600020906002020160009091909190915060008201518160000160006101000a81548173ffffffffffffffffffffffffffffffffffffffff021916908373ffffffffffffffffffffffffffffffffffffffff16021790555060208201518160010155505080600160003373ffffffffffffffffffffffffffffffffffffffff1673ffffffffffffffffffffffffffffffffffffffff1681526020019081526020016000208190555080600360008282546102a291906105fc565b9250508190555050565b60008054906101000a900473ffffffffffffffffffffffffffffffffffffffff1673ffffffffffffffffffffffffffffffffffffffff163373ffffffffffffffffffffffffffffffffffffffff161461030457600080fd5b60005b60028054905081101561041d576002818154811061032857610327610652565b5b9060005260206000209060020201600101546003546002838154811061035157610350610652565b5b9060005260206000209060020201600101548461036e9190610681565b610378919061070a565b61038291906105fc565b600160006002848154811061039a57610399610652565b5b906000526020600020906002020160000160009054906101000a900473ffffffffffffffffffffffffffffffffffffffff1673ffffffffffffffffffffffffffffffffffffffff1673ffffffffffffffffffffffffffffffffffffffff1681526020019081526020016000208190555080806104159061073b565b915050610307565b50600360009055600260006104329190610459565b50565b60008054906101000a900473ffffffffffffffffffffffffffffffffffffffff1681565b508054600082556002029060005260206000209081019061047a919061047d565b50565b5b808211156104bf57600080820160006101000a81549073ffffffffffffffffffffffffffffffffffffffff021916905560018201600090555060020161047e565b5090565b600080fd5b6000819050919050565b6104db816104c8565b81146104e657600080fd5b50565b6000813590506104f8816104d2565b92915050565b600060208284031215610514576105136104c3565b5b6000610522848285016104e9565b91505092915050565b600073ffffffffffffffffffffffffffffffffffffffff82169050919050565b60006105568261052b565b9050919050565b6105668161054b565b82525050565b6000602082019050610581600083018461055d565b92915050565b610590816104c8565b82525050565b60006060820190506105ab600083018661055d565b6105b8602083018561055d565b6105c56040830184610587565b949350505050565b7f4e487b7100000000000000000000000000000000000000000000000000000000600052601160045260246000fd5b6000610607826104c8565b9150610612836104c8565b9250827fffffffffffffffffffffffffffffffffffffffffffffffffffffffffffffffff03821115610647576106466105cd565b5b828201905092915050565b7f4e487b7100000000000000000000000000000000000000000000000000000000600052603260045260246000fd5b600061068c826104c8565b9150610697836104c8565b9250817fffffffffffffffffffffffffffffffffffffffffffffffffffffffffffffffff04831182151516156106d0576106cf6105cd565b5b828202905092915050565b7f4e487b7100000000000000000000000000000000000000000000000000000000600052601260045260246000fd5b6000610715826104c8565b9150610720836104c8565b9250826107305761072f6106db565b5b828204905092915050565b6000610746826104c8565b91507fffffffffffffffffffffffffffffffffffffffffffffffffffffffffffffffff821415610779576107786105cd565b5b60018201905091905056fea2646970667358221220a4639ae10e16f5c2b83caa2d7bab48ef31c925535417a198eff6888773c88e9464736f6c634300080b0033",
  "immutableReferences": {},
  "source": "// SPDX-License-Identifier: MIT\n\npragma solidity >=0.6.0;\n\ncontract ETHPool{\n\n    address public owner;\n    mapping (address => uint256) percentage;\n    Person[] participants;\n    uint256 pool;\n    event SendFunds(address from,address to,uint256 amount);\n\n    constructor(){\n        owner = msg.sender;\n    }\n\n    struct Person{\n        address receiver;\n        uint256 deposit;\n    }\n\n    function depositToPool(uint256 userDeposited) payable public{\n        participants.push(Person(msg.sender, userDeposited));\n        percentage[msg.sender] = userDeposited;\n        pool += userDeposited;\n    }\n\n    function depositRewards(uint256 reward) payable public{\n        require(msg.sender==owner);\n        for(uint256 i=0;i<participants.length;i++){\n            percentage[participants[i].receiver] = ((reward*participants[i].deposit)/pool)+participants[i].deposit;\n        }\n        delete pool;\n        delete participants;\n    }\n\n    function withdrawFunds() public {\n        uint256 funds = percentage[msg.sender];\n        delete percentage[msg.sender];\n        emit SendFunds(owner, msg.sender, funds);\n    }\n}",
  "sourcePath": "C:\\Users\\fede\\Documents\\Mis repos\\challenge\\contracts\\ETHpool.sol",
  "compiler": {
    "name": "solc",
    "version": "0.8.11+commit.d7f03943.Emscripten.clang"
  },
  "schemaVersion": "3.4.5",
  "updatedAt": "2022-03-02T15:55:01.747Z",
  "devdoc": {
    "kind": "dev",
    "methods": {},
    "version": 1
  },
  "userdoc": {
    "kind": "user",
    "methods": {},
    "version": 1
  }
}